{
  "contractName": "IdentityManager",
  "abi": [
    {
      "constant": true,
      "inputs": [
        {
          "name": "",
          "type": "uint256"
        }
      ],
      "name": "authorities",
      "outputs": [
        {
          "name": "",
          "type": "address"
        }
      ],
      "payable": false,
      "stateMutability": "view",
      "type": "function"
    },
    {
      "constant": true,
      "inputs": [],
      "name": "Issuer",
      "outputs": [
        {
          "name": "",
          "type": "address"
        }
      ],
      "payable": false,
      "stateMutability": "view",
      "type": "function"
    },
    {
      "constant": true,
      "inputs": [],
      "name": "population",
      "outputs": [
        {
          "name": "",
          "type": "uint256"
        }
      ],
      "payable": false,
      "stateMutability": "view",
      "type": "function"
    },
    {
      "inputs": [
        {
          "name": "name",
          "type": "string"
        }
      ],
      "payable": false,
      "stateMutability": "nonpayable",
      "type": "constructor"
    },
    {
      "anonymous": false,
      "inputs": [
        {
          "indexed": false,
          "name": "delegatedFrom",
          "type": "address"
        },
        {
          "indexed": false,
          "name": "delegatedTo",
          "type": "address"
        },
        {
          "indexed": false,
          "name": "delegatedToNAme",
          "type": "string"
        },
        {
          "indexed": false,
          "name": "delegatedFromName",
          "type": "string"
        }
      ],
      "name": "AddAuthEvent",
      "type": "event"
    },
    {
      "anonymous": false,
      "inputs": [
        {
          "indexed": false,
          "name": "delegatedFrom",
          "type": "address"
        },
        {
          "indexed": false,
          "name": "delegatedTo",
          "type": "address"
        },
        {
          "indexed": false,
          "name": "delegatedToNAme",
          "type": "string"
        },
        {
          "indexed": false,
          "name": "delegatedFromName",
          "type": "string"
        }
      ],
      "name": "FrozeAuthEvent",
      "type": "event"
    },
    {
      "anonymous": false,
      "inputs": [
        {
          "indexed": false,
          "name": "delegatedFrom",
          "type": "address"
        },
        {
          "indexed": false,
          "name": "delegatedTo",
          "type": "address"
        },
        {
          "indexed": false,
          "name": "delegatedToNAme",
          "type": "string"
        },
        {
          "indexed": false,
          "name": "delegatedFromName",
          "type": "string"
        }
      ],
      "name": "UnFrozeAuthEvent",
      "type": "event"
    },
    {
      "constant": true,
      "inputs": [],
      "name": "getAuthoritiesCount",
      "outputs": [
        {
          "name": "",
          "type": "uint256"
        }
      ],
      "payable": false,
      "stateMutability": "view",
      "type": "function"
    },
    {
      "constant": true,
      "inputs": [
        {
          "name": "index",
          "type": "uint256"
        }
      ],
      "name": "getMemberData",
      "outputs": [
        {
          "name": "",
          "type": "string"
        },
        {
          "name": "",
          "type": "bool"
        },
        {
          "name": "",
          "type": "address"
        }
      ],
      "payable": false,
      "stateMutability": "view",
      "type": "function"
    },
    {
      "constant": true,
      "inputs": [
        {
          "name": "id",
          "type": "uint256"
        }
      ],
      "name": "getPersonDataById",
      "outputs": [
        {
          "name": "dna",
          "type": "bytes32"
        }
      ],
      "payable": false,
      "stateMutability": "view",
      "type": "function"
    },
    {
      "constant": true,
      "inputs": [
        {
          "name": "index",
          "type": "uint256"
        }
      ],
      "name": "getPersonDataByIndex",
      "outputs": [
        {
          "name": "dna",
          "type": "bytes32"
        },
        {
          "name": "Id",
          "type": "uint256"
        }
      ],
      "payable": false,
      "stateMutability": "view",
      "type": "function"
    },
    {
      "constant": true,
      "inputs": [
        {
          "name": "_dna",
          "type": "bytes32"
        }
      ],
      "name": "getPersonDataByDna",
      "outputs": [
        {
          "name": "id",
          "type": "uint256"
        }
      ],
      "payable": false,
      "stateMutability": "view",
      "type": "function"
    },
    {
      "constant": false,
      "inputs": [
        {
          "name": "new_Auth",
          "type": "address"
        },
        {
          "name": "name",
          "type": "string"
        }
      ],
      "name": "addauth",
      "outputs": [
        {
          "name": "",
          "type": "bool"
        }
      ],
      "payable": false,
      "stateMutability": "nonpayable",
      "type": "function"
    },
    {
      "constant": false,
      "inputs": [
        {
          "name": "new_Auth",
          "type": "address"
        }
      ],
      "name": "frozeauth",
      "outputs": [
        {
          "name": "",
          "type": "bool"
        }
      ],
      "payable": false,
      "stateMutability": "nonpayable",
      "type": "function"
    },
    {
      "constant": false,
      "inputs": [
        {
          "name": "new_Auth",
          "type": "address"
        }
      ],
      "name": "unfrozeauth",
      "outputs": [
        {
          "name": "",
          "type": "bool"
        }
      ],
      "payable": false,
      "stateMutability": "nonpayable",
      "type": "function"
    },
    {
      "constant": false,
      "inputs": [
        {
          "name": "nationalId",
          "type": "uint256"
        },
        {
          "name": "dna",
          "type": "bytes32"
        }
      ],
      "name": "createidentity",
      "outputs": [
        {
          "name": "",
          "type": "bool"
        }
      ],
      "payable": false,
      "stateMutability": "nonpayable",
      "type": "function"
    }
  ],
  "bytecode": "0x606060405234156200001057600080fd5b604051620018d8380380620018d8833981016040528080518201919050506200003862000329565b33600660006101000a81548173ffffffffffffffffffffffffffffffffffffffff021916908373ffffffffffffffffffffffffffffffffffffffff16021790555081816000018190525060018160200190151590811515815250506001816040019015159081151581525050806000803373ffffffffffffffffffffffffffffffffffffffff1673ffffffffffffffffffffffffffffffffffffffff16815260200190815260200160002060008201518160000190805190602001906200010192919062000357565b5060208201518160010160006101000a81548160ff02191690831515021790555060408201518160010160016101000a81548160ff021916908315150217905550905050600580548060010182816200015b9190620003de565b9160005260206000209001600033909190916101000a81548173ffffffffffffffffffffffffffffffffffffffff021916908373ffffffffffffffffffffffffffffffffffffffff160217905550507f3deb1951aafbc6d870a031a054f533f8b501a177f7683656c940a01563ce7f5d33338485604051808573ffffffffffffffffffffffffffffffffffffffff1673ffffffffffffffffffffffffffffffffffffffff1681526020018473ffffffffffffffffffffffffffffffffffffffff1673ffffffffffffffffffffffffffffffffffffffff1681526020018060200180602001838103835285818151815260200191508051906020019080838360005b83811015620002795780820151818401526020810190506200025c565b50505050905090810190601f168015620002a75780820380516001836020036101000a031916815260200191505b50838103825284818151815260200191508051906020019080838360005b83811015620002e2578082015181840152602081019050620002c5565b50505050905090810190601f168015620003105780820380516001836020036101000a031916815260200191505b50965050505050505060405180910390a1505062000449565b6060604051908101604052806200033f6200040d565b81526020016000151581526020016000151581525090565b828054600181600116156101000203166002900490600052602060002090601f016020900481019282601f106200039a57805160ff1916838001178555620003cb565b82800160010185558215620003cb579182015b82811115620003ca578251825591602001919060010190620003ad565b5b509050620003da919062000421565b5090565b815481835581811511620004085781836000526020600020918201910162000407919062000421565b5b505050565b602060405190810160405280600081525090565b6200044691905b808211156200044257600081600090555060010162000428565b5090565b90565b61147f80620004596000396000f3006060604052600436106100ba576000357c0100000000000000000000000000000000000000000000000000000000900463ffffffff1680631a48a540146100bf578063494503d4146100fe57806352ac0a90146101615780635c3ca1de146101b657806378880f4a146101fe5780638b108fa2146102275780639ad783031461026d5780639fc208be146102be578063b323d1521461030f578063e517bd6414610338578063efe6d709146103cc578063ff8cd9f614610407575b600080fd5b34156100ca57600080fd5b6100e060048080359060200190919050506104e1565b60405180826000191660001916815260200191505060405180910390f35b341561010957600080fd5b61011f60048080359060200190919050506104fe565b604051808273ffffffffffffffffffffffffffffffffffffffff1673ffffffffffffffffffffffffffffffffffffffff16815260200191505060405180910390f35b341561016c57600080fd5b61017461053d565b604051808273ffffffffffffffffffffffffffffffffffffffff1673ffffffffffffffffffffffffffffffffffffffff16815260200191505060405180910390f35b34156101c157600080fd5b6101e4600480803590602001909190803560001916906020019091905050610563565b604051808215151515815260200191505060405180910390f35b341561020957600080fd5b610211610666565b6040518082815260200191505060405180910390f35b341561023257600080fd5b610248600480803590602001909190505061066c565b6040518083600019166000191681526020018281526020019250505060405180910390f35b341561027857600080fd5b6102a4600480803573ffffffffffffffffffffffffffffffffffffffff169060200190919050506106b3565b604051808215151515815260200191505060405180910390f35b34156102c957600080fd5b6102f5600480803573ffffffffffffffffffffffffffffffffffffffff169060200190919050506109f9565b604051808215151515815260200191505060405180910390f35b341561031a57600080fd5b610322610d40565b6040518082815260200191505060405180910390f35b341561034357600080fd5b6103b2600480803573ffffffffffffffffffffffffffffffffffffffff1690602001909190803590602001908201803590602001908080601f01602080910402602001604051908101604052809392919081815260200183838082843782019150505050505091905050610d4d565b604051808215151515815260200191505060405180910390f35b34156103d757600080fd5b6103f1600480803560001916906020019091905050611116565b6040518082815260200191505060405180910390f35b341561041257600080fd5b610428600480803590602001909190505061113b565b6040518080602001841515151581526020018373ffffffffffffffffffffffffffffffffffffffff1673ffffffffffffffffffffffffffffffffffffffff168152602001828103825285818151815260200191508051906020019080838360005b838110156104a4578082015181840152602081019050610489565b50505050905090810190601f1680156104d15780820380516001836020036101000a031916815260200191505b5094505050505060405180910390f35b600060016000838152602001908152602001600020549050919050565b60058181548110151561050d57fe5b90600052602060002090016000915054906101000a900473ffffffffffffffffffffffffffffffffffffffff1681565b600660009054906101000a900473ffffffffffffffffffffffffffffffffffffffff1681565b6000806000803373ffffffffffffffffffffffffffffffffffffffff1673ffffffffffffffffffffffffffffffffffffffff168152602001908152602001600020600001805460018160011615610100020316600290049050141515156105c957600080fd5b8260006001026001600083815260200190815260200160002054600019161415156105f357600080fd5b8260016000868152602001908152602001600020816000191690555083600260006004548152602001908152602001600020819055508360036000856000191660001916815260200190815260200160002081905550600460008154809291906001019190505550600191505092915050565b60045481565b600080600160006002600086815260200190815260200160002054815260200190815260200160002054600260008581526020019081526020016000205491509150915091565b6000600660009054906101000a900473ffffffffffffffffffffffffffffffffffffffff1673ffffffffffffffffffffffffffffffffffffffff163373ffffffffffffffffffffffffffffffffffffffff1614151561071157600080fd5b6000808373ffffffffffffffffffffffffffffffffffffffff1673ffffffffffffffffffffffffffffffffffffffff16815260200190815260200160002060010160019054906101000a900460ff16151561076b57600080fd5b60008060008473ffffffffffffffffffffffffffffffffffffffff1673ffffffffffffffffffffffffffffffffffffffff16815260200190815260200160002060010160016101000a81548160ff0219169083151502179055507fc27ed3a7d2fd08faac2dae6729b69b52161bac23ddd5a7c721f43a733a89fd7c33836000808673ffffffffffffffffffffffffffffffffffffffff1673ffffffffffffffffffffffffffffffffffffffff1681526020019081526020016000206000016000803373ffffffffffffffffffffffffffffffffffffffff1673ffffffffffffffffffffffffffffffffffffffff168152602001908152602001600020600001604051808573ffffffffffffffffffffffffffffffffffffffff1673ffffffffffffffffffffffffffffffffffffffff1681526020018473ffffffffffffffffffffffffffffffffffffffff1673ffffffffffffffffffffffffffffffffffffffff168152602001806020018060200183810383528581815460018160011615610100020316600290048152602001915080546001816001161561010002031660029004801561095b5780601f106109305761010080835404028352916020019161095b565b820191906000526020600020905b81548152906001019060200180831161093e57829003601f168201915b50508381038252848181546001816001161561010002031660029004815260200191508054600181600116156101000203166002900480156109de5780601f106109b3576101008083540402835291602001916109de565b820191906000526020600020905b8154815290600101906020018083116109c157829003601f168201915b5050965050505050505060405180910390a160019050919050565b6000600660009054906101000a900473ffffffffffffffffffffffffffffffffffffffff1673ffffffffffffffffffffffffffffffffffffffff163373ffffffffffffffffffffffffffffffffffffffff16141515610a5757600080fd5b6000808373ffffffffffffffffffffffffffffffffffffffff1673ffffffffffffffffffffffffffffffffffffffff16815260200190815260200160002060010160019054906101000a900460ff16151515610ab257600080fd5b60016000808473ffffffffffffffffffffffffffffffffffffffff1673ffffffffffffffffffffffffffffffffffffffff16815260200190815260200160002060010160016101000a81548160ff0219169083151502179055507f24c9485808290bc6231861095073aa15ae6dccb40b89124c88316639d4f76bcd33836000808673ffffffffffffffffffffffffffffffffffffffff1673ffffffffffffffffffffffffffffffffffffffff1681526020019081526020016000206000016000803373ffffffffffffffffffffffffffffffffffffffff1673ffffffffffffffffffffffffffffffffffffffff168152602001908152602001600020600001604051808573ffffffffffffffffffffffffffffffffffffffff1673ffffffffffffffffffffffffffffffffffffffff1681526020018473ffffffffffffffffffffffffffffffffffffffff1673ffffffffffffffffffffffffffffffffffffffff1681526020018060200180602001838103835285818154600181600116156101000203166002900481526020019150805460018160011615610100020316600290048015610ca25780601f10610c7757610100808354040283529160200191610ca2565b820191906000526020600020905b815481529060010190602001808311610c8557829003601f168201915b5050838103825284818154600181600116156101000203166002900481526020019150805460018160011615610100020316600290048015610d255780601f10610cfa57610100808354040283529160200191610d25565b820191906000526020600020905b815481529060010190602001808311610d0857829003601f168201915b5050965050505050505060405180910390a160019050919050565b6000600580549050905090565b6000610d5761132e565b600660009054906101000a900473ffffffffffffffffffffffffffffffffffffffff1673ffffffffffffffffffffffffffffffffffffffff163373ffffffffffffffffffffffffffffffffffffffff16141515610db357600080fd5b836000808273ffffffffffffffffffffffffffffffffffffffff1673ffffffffffffffffffffffffffffffffffffffff16815260200190815260200160002060010160009054906101000a900460ff16151515610e0f57600080fd5b83826000018190525060018260200190151590811515815250506001826040019015159081151581525050816000808773ffffffffffffffffffffffffffffffffffffffff1673ffffffffffffffffffffffffffffffffffffffff1681526020019081526020016000206000820151816000019080519060200190610e9592919061135a565b5060208201518160010160006101000a81548160ff02191690831515021790555060408201518160010160016101000a81548160ff02191690831515021790555090505060058054806001018281610eed91906113da565b9160005260206000209001600087909190916101000a81548173ffffffffffffffffffffffffffffffffffffffff021916908373ffffffffffffffffffffffffffffffffffffffff160217905550507f3deb1951aafbc6d870a031a054f533f8b501a177f7683656c940a01563ce7f5d3386866000803373ffffffffffffffffffffffffffffffffffffffff1673ffffffffffffffffffffffffffffffffffffffff168152602001908152602001600020600001604051808573ffffffffffffffffffffffffffffffffffffffff1673ffffffffffffffffffffffffffffffffffffffff1681526020018473ffffffffffffffffffffffffffffffffffffffff1673ffffffffffffffffffffffffffffffffffffffff1681526020018060200180602001838103835285818151815260200191508051906020019080838360005b8381101561104957808201518184015260208101905061102e565b50505050905090810190601f1680156110765780820380516001836020036101000a031916815260200191505b508381038252848181546001816001161561010002031660029004815260200191508054600181600116156101000203166002900480156110f85780601f106110cd576101008083540402835291602001916110f8565b820191906000526020600020905b8154815290600101906020018083116110db57829003601f168201915b5050965050505050505060405180910390a160019250505092915050565b6000600360008360001916600019168152602001908152602001600020549050919050565b611143611406565b60008060008060058681548110151561115857fe5b906000526020600020900160009054906101000a900473ffffffffffffffffffffffffffffffffffffffff1673ffffffffffffffffffffffffffffffffffffffff1673ffffffffffffffffffffffffffffffffffffffff1681526020019081526020016000206000016000806005878154811015156111d357fe5b906000526020600020900160009054906101000a900473ffffffffffffffffffffffffffffffffffffffff1673ffffffffffffffffffffffffffffffffffffffff1673ffffffffffffffffffffffffffffffffffffffff16815260200190815260200160002060010160019054906101000a900460ff1660058681548110151561125957fe5b906000526020600020900160009054906101000a900473ffffffffffffffffffffffffffffffffffffffff16828054600181600116156101000203166002900480601f01602080910402602001604051908101604052809291908181526020018280546001816001161561010002031660029004801561131a5780601f106112ef5761010080835404028352916020019161131a565b820191906000526020600020905b8154815290600101906020018083116112fd57829003601f168201915b505050505092509250925092509193909250565b60606040519081016040528061134261141a565b81526020016000151581526020016000151581525090565b828054600181600116156101000203166002900490600052602060002090601f016020900481019282601f1061139b57805160ff19168380011785556113c9565b828001600101855582156113c9579182015b828111156113c85782518255916020019190600101906113ad565b5b5090506113d6919061142e565b5090565b81548183558181151161140157818360005260206000209182019101611400919061142e565b5b505050565b602060405190810160405280600081525090565b602060405190810160405280600081525090565b61145091905b8082111561144c576000816000905550600101611434565b5090565b905600a165627a7a723058200e4d6e8c4844afabbcc20ce7eb55b0599a920cff815d38baacf404ec6d127dc50029",
  "source": "pragma solidity ^0.4.4;\r\ncontract  IdentityManager {\r\n   struct AuthDesc {\r\n           string name;\r\n            bool isInit;\r\n            bool isActive;\r\n    }\r\n    mapping(address => AuthDesc) Main_auth;\r\n    mapping(uint=>bytes32)  personIDToDna;\r\n    mapping(uint=>uint)  personIndextoId;\r\n    mapping(bytes32=>uint)  personDnaPrintToId;\r\n    uint public population;\r\n     event AddAuthEvent(address delegatedFrom,address delegatedTo ,string delegatedToNAme ,string delegatedFromName);\r\n\r\n     event FrozeAuthEvent(address delegatedFrom,address delegatedTo ,string delegatedToNAme ,string delegatedFromName);\r\n\r\n   event UnFrozeAuthEvent(address delegatedFrom,address delegatedTo ,string delegatedToNAme ,string delegatedFromName);\r\n\r\n\r\n    address[] public authorities;\r\n    address public Issuer;\r\n    modifier isissuer(){\r\n        require(msg.sender== Issuer);\r\n        _;\r\n    }\r\n        modifier isauthrized(){\r\n        require( bytes(Main_auth[msg.sender].name).length!=0);\r\n        _;\r\n    }\r\n        modifier isRegistered(uint id){\r\n        require( personIDToDna[id]!=0);\r\n        _;\r\n    }\r\n        modifier isNew(uint id){\r\n        require( personIDToDna[id]==0);\r\n        _;\r\n    }\r\n    modifier isdupplicated(address account){\r\n        require(!Main_auth[account].isInit);\r\n        _;\r\n    }\r\n    function getAuthoritiesCount() public constant returns(uint) {\r\n    return authorities.length;\r\n}\r\n\r\nfunction getMemberData(uint index) public constant returns( string,bool, address ) {\r\n    return (Main_auth[authorities[index]].name,Main_auth[authorities[index]].isActive, authorities[index]);\r\n}\r\nfunction getPersonDataById(uint id) public constant returns(  \r\n        bytes32 dna) {\r\n             \r\n    return (personIDToDna[id]  );\r\n}\r\n\r\nfunction getPersonDataByIndex(uint index) public constant returns(\r\n        bytes32 dna,uint Id) {\r\n            \r\n    return ( personIDToDna[personIndextoId[index]],personIndextoId[index]);\r\n}\r\nfunction getPersonDataByDna(bytes32 _dna) public constant returns(     uint id    \r\n\r\n       ) {\r\n\r\n    return (\r\n    \r\n    personDnaPrintToId[_dna]\r\n\r\n    );\r\n}\r\n\r\n    function IdentityManager(string name) public{\r\n    Issuer =  msg.sender;\r\n    AuthDesc memory auth  ;\r\n    auth.name =name;\r\n    auth.isInit=true;\r\n    auth.isActive=true;\r\n    Main_auth[msg.sender]=auth;\r\n     authorities.push(msg.sender);\r\n   AddAuthEvent (msg.sender,msg.sender,name,name);\r\n     }\r\n    function addauth(address new_Auth , string name) public isissuer isdupplicated(new_Auth) returns(bool){\r\n        AuthDesc memory auth  ;\r\n        auth.name =name;\r\n        auth.isInit=true;\r\n        auth.isActive=true;\r\n\r\n     Main_auth[new_Auth]=auth;\r\n     authorities.push(new_Auth);\r\n     AddAuthEvent(msg.sender,new_Auth,name,Main_auth[msg.sender].name);\r\nreturn true;\r\n     }\r\n\r\n    function frozeauth(address new_Auth  ) public isissuer  returns(bool){\r\n         require( Main_auth[new_Auth].isActive);\r\n          Main_auth[new_Auth].isActive=false;\r\n        FrozeAuthEvent(msg.sender,new_Auth, Main_auth[new_Auth].name,Main_auth[msg.sender].name);\r\n               return  true;\r\n          }\r\n\r\n   function unfrozeauth(address new_Auth  ) public isissuer  returns(bool){\r\n      require( !Main_auth[new_Auth].isActive);\r\n         Main_auth[new_Auth].isActive=true;\r\n       UnFrozeAuthEvent(msg.sender,new_Auth, Main_auth[new_Auth].name,Main_auth[msg.sender].name);\r\n            return  true;\r\n      }\r\n\r\n     function createidentity(\r\n         uint nationalId,\r\n        bytes32 dna\r\n        )public  isauthrized isNew(nationalId) returns(bool){\r\n        personIDToDna[nationalId]=dna;\r\n          personIndextoId[population]=nationalId;\r\n   personDnaPrintToId[dna]=nationalId;\r\n      population++;\r\n\r\n        return true;\r\n    }\r\n    \r\n   \r\n    \r\n}\r\n",
  "sourcePath": "/home/eherrawy/bootCamp/graduation project/bootcamp/Graduation project/DNA Ledger/contracts/IdentityManager.sol",
  "compiler": {
    "name": "solc",
    "version": "0.4.19+commit.c4cbbb05.Emscripten.clang"
  },
  "schemaVersion": "2.0.0",
  "updatedAt": "2018-03-29T12:29:59.004Z"
}