{
  "contractName": "IdentityManager",
  "abi": [
    {
      "constant": true,
      "inputs": [
        {
          "name": "",
          "type": "uint256"
        }
      ],
      "name": "authorities",
      "outputs": [
        {
          "name": "",
          "type": "address"
        }
      ],
      "payable": false,
      "stateMutability": "view",
      "type": "function"
    },
    {
      "constant": true,
      "inputs": [],
      "name": "Issuer",
      "outputs": [
        {
          "name": "",
          "type": "address"
        }
      ],
      "payable": false,
      "stateMutability": "view",
      "type": "function"
    },
    {
      "constant": true,
      "inputs": [],
      "name": "population",
      "outputs": [
        {
          "name": "",
          "type": "uint256"
        }
      ],
      "payable": false,
      "stateMutability": "view",
      "type": "function"
    },
    {
      "inputs": [
        {
          "name": "name",
          "type": "string"
        }
      ],
      "payable": false,
      "stateMutability": "nonpayable",
      "type": "constructor"
    },
    {
      "anonymous": false,
      "inputs": [
        {
          "indexed": false,
          "name": "delegatedFrom",
          "type": "address"
        },
        {
          "indexed": false,
          "name": "delegatedTo",
          "type": "address"
        },
        {
          "indexed": false,
          "name": "delegatedToNAme",
          "type": "string"
        },
        {
          "indexed": false,
          "name": "delegatedFromName",
          "type": "string"
        }
      ],
      "name": "AddAuthEvent",
      "type": "event"
    },
    {
      "anonymous": false,
      "inputs": [
        {
          "indexed": false,
          "name": "delegatedFrom",
          "type": "address"
        },
        {
          "indexed": false,
          "name": "delegatedTo",
          "type": "address"
        },
        {
          "indexed": false,
          "name": "delegatedToNAme",
          "type": "string"
        },
        {
          "indexed": false,
          "name": "delegatedFromName",
          "type": "string"
        }
      ],
      "name": "FrozeAuthEvent",
      "type": "event"
    },
    {
      "anonymous": false,
      "inputs": [
        {
          "indexed": false,
          "name": "delegatedFrom",
          "type": "address"
        },
        {
          "indexed": false,
          "name": "delegatedTo",
          "type": "address"
        },
        {
          "indexed": false,
          "name": "delegatedToNAme",
          "type": "string"
        },
        {
          "indexed": false,
          "name": "delegatedFromName",
          "type": "string"
        }
      ],
      "name": "UnFrozeAuthEvent",
      "type": "event"
    },
    {
      "constant": true,
      "inputs": [],
      "name": "getAuthoritiesCount",
      "outputs": [
        {
          "name": "",
          "type": "uint256"
        }
      ],
      "payable": false,
      "stateMutability": "view",
      "type": "function"
    },
    {
      "constant": true,
      "inputs": [
        {
          "name": "index",
          "type": "uint256"
        }
      ],
      "name": "getMemberData",
      "outputs": [
        {
          "name": "",
          "type": "string"
        },
        {
          "name": "",
          "type": "bool"
        },
        {
          "name": "",
          "type": "address"
        }
      ],
      "payable": false,
      "stateMutability": "view",
      "type": "function"
    },
    {
      "constant": true,
      "inputs": [
        {
          "name": "id",
          "type": "uint256"
        }
      ],
      "name": "getPersonDataById",
      "outputs": [
        {
          "name": "name",
          "type": "string"
        },
        {
          "name": "datapath",
          "type": "bytes32"
        },
        {
          "name": "fingerPrint",
          "type": "bytes32"
        },
        {
          "name": "dna",
          "type": "bytes32"
        },
        {
          "name": "fatherId",
          "type": "uint256"
        },
        {
          "name": "motherId",
          "type": "uint256"
        },
        {
          "name": "_status",
          "type": "uint8"
        }
      ],
      "payable": false,
      "stateMutability": "view",
      "type": "function"
    },
    {
      "constant": true,
      "inputs": [
        {
          "name": "index",
          "type": "uint256"
        }
      ],
      "name": "getPersonDataByIndex",
      "outputs": [
        {
          "name": "name",
          "type": "string"
        },
        {
          "name": "datapath",
          "type": "bytes32"
        },
        {
          "name": "fingerPrint",
          "type": "bytes32"
        },
        {
          "name": "dna",
          "type": "bytes32"
        },
        {
          "name": "fatherId",
          "type": "uint256"
        },
        {
          "name": "motherId",
          "type": "uint256"
        },
        {
          "name": "_status",
          "type": "uint8"
        }
      ],
      "payable": false,
      "stateMutability": "view",
      "type": "function"
    },
    {
      "constant": true,
      "inputs": [
        {
          "name": "_dna",
          "type": "bytes32"
        }
      ],
      "name": "getPersonDataByDna",
      "outputs": [
        {
          "name": "name",
          "type": "string"
        },
        {
          "name": "datapath",
          "type": "bytes32"
        },
        {
          "name": "fingerPrint",
          "type": "bytes32"
        },
        {
          "name": "dna",
          "type": "bytes32"
        },
        {
          "name": "fatherId",
          "type": "uint256"
        },
        {
          "name": "motherId",
          "type": "uint256"
        },
        {
          "name": "_status",
          "type": "uint8"
        }
      ],
      "payable": false,
      "stateMutability": "view",
      "type": "function"
    },
    {
      "constant": true,
      "inputs": [
        {
          "name": "_fingerPrint",
          "type": "bytes32"
        }
      ],
      "name": "getPersonDataByFingerPrint",
      "outputs": [
        {
          "name": "name",
          "type": "string"
        },
        {
          "name": "datapath",
          "type": "bytes32"
        },
        {
          "name": "fingerPrint",
          "type": "bytes32"
        },
        {
          "name": "dna",
          "type": "bytes32"
        },
        {
          "name": "fatherId",
          "type": "uint256"
        },
        {
          "name": "motherId",
          "type": "uint256"
        },
        {
          "name": "_status",
          "type": "uint8"
        }
      ],
      "payable": false,
      "stateMutability": "view",
      "type": "function"
    },
    {
      "constant": false,
      "inputs": [
        {
          "name": "new_Auth",
          "type": "address"
        },
        {
          "name": "name",
          "type": "string"
        }
      ],
      "name": "addauth",
      "outputs": [
        {
          "name": "",
          "type": "bool"
        }
      ],
      "payable": false,
      "stateMutability": "nonpayable",
      "type": "function"
    },
    {
      "constant": false,
      "inputs": [
        {
          "name": "new_Auth",
          "type": "address"
        }
      ],
      "name": "frozeauth",
      "outputs": [
        {
          "name": "",
          "type": "bool"
        }
      ],
      "payable": false,
      "stateMutability": "nonpayable",
      "type": "function"
    },
    {
      "constant": false,
      "inputs": [
        {
          "name": "new_Auth",
          "type": "address"
        }
      ],
      "name": "unfrozeauth",
      "outputs": [
        {
          "name": "",
          "type": "bool"
        }
      ],
      "payable": false,
      "stateMutability": "nonpayable",
      "type": "function"
    },
    {
      "constant": false,
      "inputs": [
        {
          "name": "nationalId",
          "type": "uint256"
        },
        {
          "name": "name",
          "type": "string"
        },
        {
          "name": "datapath",
          "type": "bytes32"
        },
        {
          "name": "fingerPrint",
          "type": "bytes32"
        },
        {
          "name": "dna",
          "type": "bytes32"
        },
        {
          "name": "fatherId",
          "type": "uint256"
        },
        {
          "name": "motherId",
          "type": "uint256"
        }
      ],
      "name": "createidentity",
      "outputs": [
        {
          "name": "",
          "type": "bool"
        }
      ],
      "payable": false,
      "stateMutability": "nonpayable",
      "type": "function"
    },
    {
      "constant": false,
      "inputs": [
        {
          "name": "_status",
          "type": "uint8"
        },
        {
          "name": "_id",
          "type": "uint256"
        }
      ],
      "name": "changestatus",
      "outputs": [],
      "payable": false,
      "stateMutability": "nonpayable",
      "type": "function"
    }
  ],
  "bytecode": "0x606060405234156200001057600080fd5b6040516200249638038062002496833981016040528080518201919050506200003862000329565b33600760006101000a81548173ffffffffffffffffffffffffffffffffffffffff021916908373ffffffffffffffffffffffffffffffffffffffff16021790555081816000018190525060018160200190151590811515815250506001816040019015159081151581525050806000803373ffffffffffffffffffffffffffffffffffffffff1673ffffffffffffffffffffffffffffffffffffffff16815260200190815260200160002060008201518160000190805190602001906200010192919062000357565b5060208201518160010160006101000a81548160ff02191690831515021790555060408201518160010160016101000a81548160ff021916908315150217905550905050600680548060010182816200015b9190620003de565b9160005260206000209001600033909190916101000a81548173ffffffffffffffffffffffffffffffffffffffff021916908373ffffffffffffffffffffffffffffffffffffffff160217905550507f3deb1951aafbc6d870a031a054f533f8b501a177f7683656c940a01563ce7f5d33338485604051808573ffffffffffffffffffffffffffffffffffffffff1673ffffffffffffffffffffffffffffffffffffffff1681526020018473ffffffffffffffffffffffffffffffffffffffff1673ffffffffffffffffffffffffffffffffffffffff1681526020018060200180602001838103835285818151815260200191508051906020019080838360005b83811015620002795780820151818401526020810190506200025c565b50505050905090810190601f168015620002a75780820380516001836020036101000a031916815260200191505b50838103825284818151815260200191508051906020019080838360005b83811015620002e2578082015181840152602081019050620002c5565b50505050905090810190601f168015620003105780820380516001836020036101000a031916815260200191505b50965050505050505060405180910390a1505062000449565b6060604051908101604052806200033f6200040d565b81526020016000151581526020016000151581525090565b828054600181600116156101000203166002900490600052602060002090601f016020900481019282601f106200039a57805160ff1916838001178555620003cb565b82800160010185558215620003cb579182015b82811115620003ca578251825591602001919060010190620003ad565b5b509050620003da919062000421565b5090565b815481835581811511620004085781836000526020600020918201910162000407919062000421565b5b505050565b602060405190810160405280600081525090565b6200044691905b808211156200044257600081600090555060010162000428565b5090565b90565b61203d80620004596000396000f3006060604052600436106100d0576000357c0100000000000000000000000000000000000000000000000000000000900463ffffffff1680631a48a540146100d5578063494503d4146101c157806352ac0a901461022457806378880f4a146102795780638b108fa2146102a25780639ad783031461038e5780639fc208be146103df578063adb381f814610430578063b323d152146104e7578063b5bb549f14610510578063c096da651461053f578063e517bd641461062f578063efe6d709146106c3578063ff8cd9f6146107b3575b600080fd5b34156100e057600080fd5b6100f6600480803590602001909190505061088d565b604051808060200188600019166000191681526020018760001916600019168152602001866000191660001916815260200185815260200184815260200183600281111561014057fe5b60ff168152602001828103825289818151815260200191508051906020019080838360005b83811015610180578082015181840152602081019050610165565b50505050905090810190601f1680156101ad5780820380516001836020036101000a031916815260200191505b509850505050505050505060405180910390f35b34156101cc57600080fd5b6101e26004808035906020019091905050610a00565b604051808273ffffffffffffffffffffffffffffffffffffffff1673ffffffffffffffffffffffffffffffffffffffff16815260200191505060405180910390f35b341561022f57600080fd5b610237610a3f565b604051808273ffffffffffffffffffffffffffffffffffffffff1673ffffffffffffffffffffffffffffffffffffffff16815260200191505060405180910390f35b341561028457600080fd5b61028c610a65565b6040518082815260200191505060405180910390f35b34156102ad57600080fd5b6102c36004808035906020019091905050610a6b565b604051808060200188600019166000191681526020018760001916600019168152602001866000191660001916815260200185815260200184815260200183600281111561030d57fe5b60ff168152602001828103825289818151815260200191508051906020019080838360005b8381101561034d578082015181840152602081019050610332565b50505050905090810190601f16801561037a5780820380516001836020036101000a031916815260200191505b509850505050505050505060405180910390f35b341561039957600080fd5b6103c5600480803573ffffffffffffffffffffffffffffffffffffffff16906020019091905050610bf7565b604051808215151515815260200191505060405180910390f35b34156103ea57600080fd5b610416600480803573ffffffffffffffffffffffffffffffffffffffff16906020019091905050610f3d565b604051808215151515815260200191505060405180910390f35b341561043b57600080fd5b6104cd600480803590602001909190803590602001908201803590602001908080601f01602080910402602001604051908101604052809392919081815260200183838082843782019150505050505091908035600019169060200190919080356000191690602001909190803560001916906020019091908035906020019091908035906020019091905050611284565b604051808215151515815260200191505060405180910390f35b34156104f257600080fd5b6104fa6114c7565b6040518082815260200191505060405180910390f35b341561051b57600080fd5b61053d600480803560ff169060200190919080359060200190919050506114d4565b005b341561054a57600080fd5b6105646004808035600019169060200190919050506115b0565b60405180806020018860001916600019168152602001876000191660001916815260200186600019166000191681526020018581526020018481526020018360028111156105ae57fe5b60ff168152602001828103825289818151815260200191508051906020019080838360005b838110156105ee5780820151818401526020810190506105d3565b50505050905090810190601f16801561061b5780820380516001836020036101000a031916815260200191505b509850505050505050505060405180910390f35b341561063a57600080fd5b6106a9600480803573ffffffffffffffffffffffffffffffffffffffff1690602001909190803590602001908201803590602001908080601f01602080910402602001604051908101604052809392919081815260200183838082843782019150505050505091905050611744565b604051808215151515815260200191505060405180910390f35b34156106ce57600080fd5b6106e8600480803560001916906020019091905050611b0d565b604051808060200188600019166000191681526020018760001916600019168152602001866000191660001916815260200185815260200184815260200183600281111561073257fe5b60ff168152602001828103825289818151815260200191508051906020019080838360005b83811015610772578082015181840152602081019050610757565b50505050905090810190601f16801561079f5780820380516001836020036101000a031916815260200191505b509850505050505050505060405180910390f35b34156107be57600080fd5b6107d46004808035906020019091905050611ca1565b6040518080602001841515151581526020018373ffffffffffffffffffffffffffffffffffffffff1673ffffffffffffffffffffffffffffffffffffffff168152602001828103825285818151815260200191508051906020019080838360005b83811015610850578082015181840152602081019050610835565b50505050905090810190601f16801561087d5780820380516001836020036101000a031916815260200191505b5094505050505060405180910390f35b610895611e94565b60008060008060008060016000898152602001908152602001600020600001600160008a815260200190815260200160002060010154600160008b815260200190815260200160002060020154600160008c815260200190815260200160002060030154600160008d815260200190815260200160002060040154600160008e815260200190815260200160002060050154600160008f815260200190815260200160002060060160009054906101000a900460ff16868054600181600116156101000203166002900480601f0160208091040260200160405190810160405280929190818152602001828054600181600116156101000203166002900480156109e05780601f106109b5576101008083540402835291602001916109e0565b820191906000526020600020905b8154815290600101906020018083116109c357829003601f168201915b505050505096509650965096509650965096509650919395979092949650565b600681815481101515610a0f57fe5b90600052602060002090016000915054906101000a900473ffffffffffffffffffffffffffffffffffffffff1681565b600760009054906101000a900473ffffffffffffffffffffffffffffffffffffffff1681565b60055481565b610a73611e94565b6000806000806000806000600260008a815260200190815260200160002054905060016000828152602001908152602001600020600001600160008381526020019081526020016000206001015460016000848152602001908152602001600020600201546001600085815260200190815260200160002060030154600160008681526020019081526020016000206004015460016000878152602001908152602001600020600501546001600088815260200190815260200160002060060160009054906101000a900460ff16868054600181600116156101000203166002900480601f016020809104026020016040519081016040528092919081815260200182805460018160011615610100020316600290048015610bd65780601f10610bab57610100808354040283529160200191610bd6565b820191906000526020600020905b815481529060010190602001808311610bb957829003601f168201915b50505050509650975097509750975097509750975050919395979092949650565b6000600760009054906101000a900473ffffffffffffffffffffffffffffffffffffffff1673ffffffffffffffffffffffffffffffffffffffff163373ffffffffffffffffffffffffffffffffffffffff16141515610c5557600080fd5b6000808373ffffffffffffffffffffffffffffffffffffffff1673ffffffffffffffffffffffffffffffffffffffff16815260200190815260200160002060010160019054906101000a900460ff161515610caf57600080fd5b60008060008473ffffffffffffffffffffffffffffffffffffffff1673ffffffffffffffffffffffffffffffffffffffff16815260200190815260200160002060010160016101000a81548160ff0219169083151502179055507fc27ed3a7d2fd08faac2dae6729b69b52161bac23ddd5a7c721f43a733a89fd7c33836000808673ffffffffffffffffffffffffffffffffffffffff1673ffffffffffffffffffffffffffffffffffffffff1681526020019081526020016000206000016000803373ffffffffffffffffffffffffffffffffffffffff1673ffffffffffffffffffffffffffffffffffffffff168152602001908152602001600020600001604051808573ffffffffffffffffffffffffffffffffffffffff1673ffffffffffffffffffffffffffffffffffffffff1681526020018473ffffffffffffffffffffffffffffffffffffffff1673ffffffffffffffffffffffffffffffffffffffff1681526020018060200180602001838103835285818154600181600116156101000203166002900481526020019150805460018160011615610100020316600290048015610e9f5780601f10610e7457610100808354040283529160200191610e9f565b820191906000526020600020905b815481529060010190602001808311610e8257829003601f168201915b5050838103825284818154600181600116156101000203166002900481526020019150805460018160011615610100020316600290048015610f225780601f10610ef757610100808354040283529160200191610f22565b820191906000526020600020905b815481529060010190602001808311610f0557829003601f168201915b5050965050505050505060405180910390a160019050919050565b6000600760009054906101000a900473ffffffffffffffffffffffffffffffffffffffff1673ffffffffffffffffffffffffffffffffffffffff163373ffffffffffffffffffffffffffffffffffffffff16141515610f9b57600080fd5b6000808373ffffffffffffffffffffffffffffffffffffffff1673ffffffffffffffffffffffffffffffffffffffff16815260200190815260200160002060010160019054906101000a900460ff16151515610ff657600080fd5b60016000808473ffffffffffffffffffffffffffffffffffffffff1673ffffffffffffffffffffffffffffffffffffffff16815260200190815260200160002060010160016101000a81548160ff0219169083151502179055507f24c9485808290bc6231861095073aa15ae6dccb40b89124c88316639d4f76bcd33836000808673ffffffffffffffffffffffffffffffffffffffff1673ffffffffffffffffffffffffffffffffffffffff1681526020019081526020016000206000016000803373ffffffffffffffffffffffffffffffffffffffff1673ffffffffffffffffffffffffffffffffffffffff168152602001908152602001600020600001604051808573ffffffffffffffffffffffffffffffffffffffff1673ffffffffffffffffffffffffffffffffffffffff1681526020018473ffffffffffffffffffffffffffffffffffffffff1673ffffffffffffffffffffffffffffffffffffffff16815260200180602001806020018381038352858181546001816001161561010002031660029004815260200191508054600181600116156101000203166002900480156111e65780601f106111bb576101008083540402835291602001916111e6565b820191906000526020600020905b8154815290600101906020018083116111c957829003601f168201915b50508381038252848181546001816001161561010002031660029004815260200191508054600181600116156101000203166002900480156112695780601f1061123e57610100808354040283529160200191611269565b820191906000526020600020905b81548152906001019060200180831161124c57829003601f168201915b5050965050505050505060405180910390a160019050919050565b600061128e611ea8565b60008060003373ffffffffffffffffffffffffffffffffffffffff1673ffffffffffffffffffffffffffffffffffffffff168152602001908152602001600020600001805460018160011615610100020316600290049050141515156112f357600080fd5b8860006001600083815260200190815260200160002060000180546001816001161561010002031660029004905014151561132d57600080fd5b88826000018190525060008260c00190600281111561134857fe5b9081600281111561135557fe5b8152505085826060019060001916908160001916815250508782602001906000191690816000191681525050868260400190600019169081600019168152505084826080018181525050838260a001818152505081600160008c815260200190815260200160002060008201518160000190805190602001906113d9929190611f00565b506020820151816001019060001916905560408201518160020190600019169055606082015181600301906000191690556080820151816004015560a0820151816005015560c08201518160060160006101000a81548160ff0219169083600281111561144257fe5b0217905550905050896002600060055481526020019081526020016000208190555089600360008960001916600019168152602001908152602001600020819055508960046000886000191660001916815260200190815260200160002081905550600560008154809291906001019190505550600192505050979650505050505050565b6000600680549050905090565b806000600160008381526020019081526020016000206000018054600181600116156101000203166002900490501415151561150f57600080fd5b60008060003373ffffffffffffffffffffffffffffffffffffffff1673ffffffffffffffffffffffffffffffffffffffff1681526020019081526020016000206000018054600181600116156101000203166002900490501415151561157457600080fd5b826001600084815260200190815260200160002060060160006101000a81548160ff021916908360028111156115a657fe5b0217905550505050565b6115b8611e94565b6000806000806000806000600360008a6000191660001916815260200190815260200160002054905060016000828152602001908152602001600020600001600160008381526020019081526020016000206001015460016000848152602001908152602001600020600201546001600085815260200190815260200160002060030154600160008681526020019081526020016000206004015460016000878152602001908152602001600020600501546001600088815260200190815260200160002060060160009054906101000a900460ff16868054600181600116156101000203166002900480601f0160208091040260200160405190810160405280929190818152602001828054600181600116156101000203166002900480156117235780601f106116f857610100808354040283529160200191611723565b820191906000526020600020905b81548152906001019060200180831161170657829003601f168201915b50505050509650975097509750975097509750975050919395979092949650565b600061174e611f80565b600760009054906101000a900473ffffffffffffffffffffffffffffffffffffffff1673ffffffffffffffffffffffffffffffffffffffff163373ffffffffffffffffffffffffffffffffffffffff161415156117aa57600080fd5b836000808273ffffffffffffffffffffffffffffffffffffffff1673ffffffffffffffffffffffffffffffffffffffff16815260200190815260200160002060010160009054906101000a900460ff1615151561180657600080fd5b83826000018190525060018260200190151590811515815250506001826040019015159081151581525050816000808773ffffffffffffffffffffffffffffffffffffffff1673ffffffffffffffffffffffffffffffffffffffff168152602001908152602001600020600082015181600001908051906020019061188c929190611f00565b5060208201518160010160006101000a81548160ff02191690831515021790555060408201518160010160016101000a81548160ff021916908315150217905550905050600680548060010182816118e49190611fac565b9160005260206000209001600087909190916101000a81548173ffffffffffffffffffffffffffffffffffffffff021916908373ffffffffffffffffffffffffffffffffffffffff160217905550507f3deb1951aafbc6d870a031a054f533f8b501a177f7683656c940a01563ce7f5d3386866000803373ffffffffffffffffffffffffffffffffffffffff1673ffffffffffffffffffffffffffffffffffffffff168152602001908152602001600020600001604051808573ffffffffffffffffffffffffffffffffffffffff1673ffffffffffffffffffffffffffffffffffffffff1681526020018473ffffffffffffffffffffffffffffffffffffffff1673ffffffffffffffffffffffffffffffffffffffff1681526020018060200180602001838103835285818151815260200191508051906020019080838360005b83811015611a40578082015181840152602081019050611a25565b50505050905090810190601f168015611a6d5780820380516001836020036101000a031916815260200191505b50838103825284818154600181600116156101000203166002900481526020019150805460018160011615610100020316600290048015611aef5780601f10611ac457610100808354040283529160200191611aef565b820191906000526020600020905b815481529060010190602001808311611ad257829003601f168201915b5050965050505050505060405180910390a160019250505092915050565b611b15611e94565b6000806000806000806000600460008a6000191660001916815260200190815260200160002054905060016000828152602001908152602001600020600001600160008381526020019081526020016000206001015460016000848152602001908152602001600020600201546001600085815260200190815260200160002060030154600160008681526020019081526020016000206004015460016000878152602001908152602001600020600501546001600088815260200190815260200160002060060160009054906101000a900460ff16868054600181600116156101000203166002900480601f016020809104026020016040519081016040528092919081815260200182805460018160011615610100020316600290048015611c805780601f10611c5557610100808354040283529160200191611c80565b820191906000526020600020905b815481529060010190602001808311611c6357829003601f168201915b50505050509650975097509750975097509750975050919395979092949650565b611ca9611e94565b600080600080600686815481101515611cbe57fe5b906000526020600020900160009054906101000a900473ffffffffffffffffffffffffffffffffffffffff1673ffffffffffffffffffffffffffffffffffffffff1673ffffffffffffffffffffffffffffffffffffffff168152602001908152602001600020600001600080600687815481101515611d3957fe5b906000526020600020900160009054906101000a900473ffffffffffffffffffffffffffffffffffffffff1673ffffffffffffffffffffffffffffffffffffffff1673ffffffffffffffffffffffffffffffffffffffff16815260200190815260200160002060010160019054906101000a900460ff16600686815481101515611dbf57fe5b906000526020600020900160009054906101000a900473ffffffffffffffffffffffffffffffffffffffff16828054600181600116156101000203166002900480601f016020809104026020016040519081016040528092919081815260200182805460018160011615610100020316600290048015611e805780601f10611e5557610100808354040283529160200191611e80565b820191906000526020600020905b815481529060010190602001808311611e6357829003601f168201915b505050505092509250925092509193909250565b602060405190810160405280600081525090565b60e060405190810160405280611ebc611fd8565b8152602001600080191681526020016000801916815260200160008019168152602001600081526020016000815260200160006002811115611efa57fe5b81525090565b828054600181600116156101000203166002900490600052602060002090601f016020900481019282601f10611f4157805160ff1916838001178555611f6f565b82800160010185558215611f6f579182015b82811115611f6e578251825591602001919060010190611f53565b5b509050611f7c9190611fec565b5090565b606060405190810160405280611f94611fd8565b81526020016000151581526020016000151581525090565b815481835581811511611fd357818360005260206000209182019101611fd29190611fec565b5b505050565b602060405190810160405280600081525090565b61200e91905b8082111561200a576000816000905550600101611ff2565b5090565b905600a165627a7a723058202cc527ca582599ce4dca33982459dc4e86171e037e82dc1a8d46368c7c8337380029",
  "source": "pragma solidity ^0.4.4;\r\ncontract  IdentityManager {\r\n   struct AuthDesc {\r\n           string name;\r\n            bool isInit;\r\n            bool isActive;\r\n    }\r\n        enum PersonStatus{\r\n     Alive,Lost ,Died\r\n    }\r\n        struct PersonInfo {\r\n     \r\n        string name;\r\n        bytes32 datapath;\r\n        bytes32 fingerPrint;\r\n        // need to rethink about it\r\n        bytes32 dna;\r\n         uint fatherId;\r\n         uint motherId;\r\n         PersonStatus _status;\r\n    }\r\n    mapping(address => AuthDesc) Main_auth;\r\n    mapping(uint=>PersonInfo)  people;\r\n    // mapping(string=>uint)  personNametoId;\r\n    mapping(uint=>uint)  personIndextoId;\r\n    mapping(bytes32=>uint)  personfingerPrintToId;\r\n    mapping(bytes32=>uint)  personDnaPrintToId;\r\n    uint public population;\r\n     event AddAuthEvent(address delegatedFrom,address delegatedTo ,string delegatedToNAme ,string delegatedFromName);\r\n\r\n     event FrozeAuthEvent(address delegatedFrom,address delegatedTo ,string delegatedToNAme ,string delegatedFromName);\r\n\r\n   event UnFrozeAuthEvent(address delegatedFrom,address delegatedTo ,string delegatedToNAme ,string delegatedFromName);\r\n\r\n\r\n    address[] public authorities;\r\n    address public Issuer;\r\n    modifier isissuer(){\r\n        require(msg.sender== Issuer);\r\n        _;\r\n    }\r\n        modifier isauthrized(){\r\n        require( bytes(Main_auth[msg.sender].name).length!=0);\r\n        _;\r\n    }\r\n        modifier isRegistered(uint id){\r\n        require( bytes(people[id].name).length!=0);\r\n        _;\r\n    }\r\n        modifier isNew(uint id){\r\n        require( bytes(people[id].name).length==0);\r\n        _;\r\n    }\r\n    modifier isdupplicated(address account){\r\n        require(!Main_auth[account].isInit);\r\n        _;\r\n    }\r\n    function getAuthoritiesCount() public constant returns(uint) {\r\n    return authorities.length;\r\n}\r\n\r\nfunction getMemberData(uint index) public constant returns( string,bool, address ) {\r\n    return (Main_auth[authorities[index]].name,Main_auth[authorities[index]].isActive, authorities[index]);\r\n}\r\nfunction getPersonDataById(uint id) public constant returns(     string name,\r\n        bytes32 datapath,\r\n        bytes32 fingerPrint,\r\n        // need to rethink about it\r\n        bytes32 dna,\r\n         uint fatherId, \r\n         uint motherId,\r\n         PersonStatus _status) {\r\n             \r\n    return (people[id].name,people[id].datapath,people[id].fingerPrint,people[id].dna,\r\n    people[id].fatherId,people[id].motherId,people[id]._status);\r\n}\r\n// function getPersonDataByName(string name) public constant returns(     string name,\r\n//         bytes32 datapath,\r\n//         bytes32 fingerPrint,\r\n//         // need to rethink about it\r\n//         bytes32 dna,\r\n//          uint fatherId,\r\n//          uint motherId,\r\n//          PersonStatus _status) {\r\n//            uint  id = personNametoId[_name] ;\r\n//     return (people[id].name,people[id].datapath,people[id].fingerPrint,people[id].dna,\r\n//     people[id].fatherId,people[id].motherId,people[id]._status);\r\n// }\r\nfunction getPersonDataByIndex(uint index) public constant returns(     string name,\r\n        bytes32 datapath,\r\n        bytes32 fingerPrint,\r\n        // need to rethink about it\r\n        bytes32 dna,\r\n         uint fatherId,\r\n         uint motherId,\r\n         PersonStatus _status) {\r\n        //    uint  id = personNametoId[_name] ;\r\n           uint  id = personIndextoId[index] ;\r\n    return (people[id].name,people[id].datapath,people[id].fingerPrint,people[id].dna,\r\n    people[id].fatherId,people[id].motherId,people[id]._status);\r\n}\r\nfunction getPersonDataByDna(bytes32 _dna) public constant returns(     string name,\r\n        bytes32 datapath,\r\n        bytes32 fingerPrint,\r\n        // need to rethink about it\r\n        bytes32 dna,\r\n         uint fatherId,\r\n         uint motherId,\r\n         PersonStatus _status) {\r\n                        uint  id = personDnaPrintToId[_dna] ;\r\n\r\n    return (people[id].name,people[id].datapath,people[id].fingerPrint,people[id].dna,\r\n    people[id].fatherId,people[id].motherId,people[id]._status);\r\n}\r\nfunction getPersonDataByFingerPrint(bytes32 _fingerPrint) public constant returns(     string name,\r\n        bytes32 datapath,\r\n        bytes32 fingerPrint,\r\n        // need to rethink about it\r\n        bytes32 dna,\r\n         uint fatherId,\r\n         uint motherId,\r\n         PersonStatus _status) {\r\n                                     uint  id = personfingerPrintToId[_fingerPrint] ;\r\n\r\n    return (people[id].name,people[id].datapath,people[id].fingerPrint,people[id].dna,\r\n    people[id].fatherId,people[id].motherId,people[id]._status);\r\n}\r\n    function IdentityManager(string name) public{\r\n    Issuer =  msg.sender;\r\n    AuthDesc memory auth  ;\r\n    auth.name =name;\r\n    auth.isInit=true;\r\n    auth.isActive=true;\r\n    Main_auth[msg.sender]=auth;\r\n     authorities.push(msg.sender);\r\n   AddAuthEvent (msg.sender,msg.sender,name,name);\r\n     }\r\n    function addauth(address new_Auth , string name) public isissuer isdupplicated(new_Auth) returns(bool){\r\n        AuthDesc memory auth  ;\r\n        auth.name =name;\r\n        auth.isInit=true;\r\n        auth.isActive=true;\r\n\r\n     Main_auth[new_Auth]=auth;\r\n     authorities.push(new_Auth);\r\n     AddAuthEvent(msg.sender,new_Auth,name,Main_auth[msg.sender].name);\r\nreturn true;\r\n     }\r\n\r\n    function frozeauth(address new_Auth  ) public isissuer  returns(bool){\r\n         require( Main_auth[new_Auth].isActive);\r\n          Main_auth[new_Auth].isActive=false;\r\n        FrozeAuthEvent(msg.sender,new_Auth, Main_auth[new_Auth].name,Main_auth[msg.sender].name);\r\nreturn true;\r\n          }\r\n\r\n   function unfrozeauth(address new_Auth  ) public isissuer  returns(bool){\r\n      require( !Main_auth[new_Auth].isActive);\r\n         Main_auth[new_Auth].isActive=true;\r\n       UnFrozeAuthEvent(msg.sender,new_Auth, Main_auth[new_Auth].name,Main_auth[msg.sender].name);\r\nreturn true;\r\n      }\r\n\r\n     function createidentity(\r\n   uint nationalId,string name,\r\n         bytes32 datapath,\r\n        bytes32 fingerPrint,\r\n        // need to rethink about it\r\n        bytes32 dna,\r\n     uint fatherId,\r\n    uint motherId\r\n    )public  isauthrized isNew(nationalId) returns(bool){\r\n          PersonInfo memory   _data;\r\n        _data.name=name;\r\n        _data._status=PersonStatus.Alive;\r\n        _data.dna=dna;\r\n        _data.datapath=datapath;\r\n        _data.fingerPrint=fingerPrint;\r\n        _data.fatherId=fatherId;\r\n        _data.motherId=motherId;\r\n        people[nationalId]=_data;\r\n        \r\n//   personNametoId[name]=nationalId;\r\n  personIndextoId[population]=nationalId;\r\n    personfingerPrintToId[fingerPrint]=nationalId;\r\n   personDnaPrintToId[dna]=nationalId;\r\n      population++;\r\n\r\n        return true;\r\n    }\r\n    \r\n       function changestatus(PersonStatus _status,uint _id)public isRegistered(_id) isauthrized{\r\n           people[_id]._status=_status;\r\n    \r\n    }\r\n    \r\n}\r\n",
  "sourcePath": "/home/eherrawy/bootCamp/graduation project/bootcamp/Graduation project/angular4-truffle-starter-dapp/contracts/IdentityManager.sol",
  "compiler": {
    "name": "solc",
    "version": "0.4.19+commit.c4cbbb05.Emscripten.clang"
  },
  "schemaVersion": "2.0.0",
  "updatedAt": "2018-03-26T20:06:12.887Z"
}